{
  "contractName": "MyContract",
  "abi": [
    {
      "inputs": [
        {
          "internalType": "string",
          "name": "_message",
          "type": "string"
        }
      ],
      "stateMutability": "nonpayable",
      "type": "constructor"
    },
    {
      "inputs": [],
      "name": "owner",
      "outputs": [
        {
          "internalType": "address",
          "name": "",
          "type": "address"
        }
      ],
      "stateMutability": "view",
      "type": "function",
      "constant": true
    },
    {
      "inputs": [],
      "name": "getMessage",
      "outputs": [
        {
          "internalType": "string",
          "name": "",
          "type": "string"
        }
      ],
      "stateMutability": "view",
      "type": "function",
      "constant": true
    },
    {
      "inputs": [
        {
          "internalType": "string",
          "name": "_message",
          "type": "string"
        }
      ],
      "name": "setMessage",
      "outputs": [],
      "stateMutability": "payable",
      "type": "function",
      "payable": true
    },
    {
      "inputs": [
        {
          "internalType": "string",
          "name": "_message",
          "type": "string"
        }
      ],
      "name": "setMessageByOwner",
      "outputs": [],
      "stateMutability": "nonpayable",
      "type": "function"
    }
  ],
  "bytecode": "0x60806040523480156200001157600080fd5b5060405162000977380380620009778339818101604052810190620000379190620001ba565b80600090805190602001906200004f92919062000098565b5033600160006101000a81548173ffffffffffffffffffffffffffffffffffffffff021916908373ffffffffffffffffffffffffffffffffffffffff160217905550506200036f565b828054620000a69062000294565b90600052602060002090601f016020900481019282620000ca576000855562000116565b82601f10620000e557805160ff191683800117855562000116565b8280016001018555821562000116579182015b8281111562000115578251825591602001919060010190620000f8565b5b50905062000125919062000129565b5090565b5b80821115620001445760008160009055506001016200012a565b5090565b60006200015f620001598462000228565b620001ff565b9050828152602081018484840111156200017857600080fd5b620001858482856200025e565b509392505050565b600082601f8301126200019f57600080fd5b8151620001b184826020860162000148565b91505092915050565b600060208284031215620001cd57600080fd5b600082015167ffffffffffffffff811115620001e857600080fd5b620001f6848285016200018d565b91505092915050565b60006200020b6200021e565b9050620002198282620002ca565b919050565b6000604051905090565b600067ffffffffffffffff8211156200024657620002456200032f565b5b62000251826200035e565b9050602081019050919050565b60005b838110156200027e57808201518184015260208101905062000261565b838111156200028e576000848401525b50505050565b60006002820490506001821680620002ad57607f821691505b60208210811415620002c457620002c362000300565b5b50919050565b620002d5826200035e565b810181811067ffffffffffffffff82111715620002f757620002f66200032f565b5b80604052505050565b7f4e487b7100000000000000000000000000000000000000000000000000000000600052602260045260246000fd5b7f4e487b7100000000000000000000000000000000000000000000000000000000600052604160045260246000fd5b6000601f19601f8301169050919050565b6105f8806200037f6000396000f3fe60806040526004361061003f5760003560e01c8063368b87721461004457806356ec0feb146100605780638da5cb5b14610089578063ce6d41de146100b4575b600080fd5b61005e60048036038101906100599190610344565b6100df565b005b34801561006c57600080fd5b5061008760048036038101906100829190610344565b61010d565b005b34801561009557600080fd5b5061009e610181565b6040516100ab91906103cd565b60405180910390f35b3480156100c057600080fd5b506100c96101a7565b6040516100d691906103e8565b60405180910390f35b670de0b6b3a764000034116100f357600080fd5b8060009080519060200190610109929190610239565b5050565b600160009054906101000a900473ffffffffffffffffffffffffffffffffffffffff1673ffffffffffffffffffffffffffffffffffffffff163373ffffffffffffffffffffffffffffffffffffffff161461016757600080fd5b806000908051906020019061017d929190610239565b5050565b600160009054906101000a900473ffffffffffffffffffffffffffffffffffffffff1681565b6060600080546101b6906104f0565b80601f01602080910402602001604051908101604052809291908181526020018280546101e2906104f0565b801561022f5780601f106102045761010080835404028352916020019161022f565b820191906000526020600020905b81548152906001019060200180831161021257829003601f168201915b5050505050905090565b828054610245906104f0565b90600052602060002090601f01602090048101928261026757600085556102ae565b82601f1061028057805160ff19168380011785556102ae565b828001600101855582156102ae579182015b828111156102ad578251825591602001919060010190610292565b5b5090506102bb91906102bf565b5090565b5b808211156102d85760008160009055506001016102c0565b5090565b60006102ef6102ea8461042f565b61040a565b90508281526020810184848401111561030757600080fd5b6103128482856104ae565b509392505050565b600082601f83011261032b57600080fd5b813561033b8482602086016102dc565b91505092915050565b60006020828403121561035657600080fd5b600082013567ffffffffffffffff81111561037057600080fd5b61037c8482850161031a565b91505092915050565b61038e8161047c565b82525050565b600061039f82610460565b6103a9818561046b565b93506103b98185602086016104bd565b6103c2816105b1565b840191505092915050565b60006020820190506103e26000830184610385565b92915050565b600060208201905081810360008301526104028184610394565b905092915050565b6000610414610425565b90506104208282610522565b919050565b6000604051905090565b600067ffffffffffffffff82111561044a57610449610582565b5b610453826105b1565b9050602081019050919050565b600081519050919050565b600082825260208201905092915050565b60006104878261048e565b9050919050565b600073ffffffffffffffffffffffffffffffffffffffff82169050919050565b82818337600083830152505050565b60005b838110156104db5780820151818401526020810190506104c0565b838111156104ea576000848401525b50505050565b6000600282049050600182168061050857607f821691505b6020821081141561051c5761051b610553565b5b50919050565b61052b826105b1565b810181811067ffffffffffffffff8211171561054a57610549610582565b5b80604052505050565b7f4e487b7100000000000000000000000000000000000000000000000000000000600052602260045260246000fd5b7f4e487b7100000000000000000000000000000000000000000000000000000000600052604160045260246000fd5b6000601f19601f830116905091905056fea26469706673582212205e7b7f4af4d9fa0544338f6bc5b64ef370df133735cd635a054034eec26b897364736f6c63430008040033",
  "immutableReferences": {},
  "source": "pragma solidity 0.8.4;\r\n\r\ncontract MyContract {\r\n\r\n    string message;\r\n    address public owner;\r\n\r\n    constructor(string memory _message) {\r\n        message = _message;\r\n        owner = msg.sender;\r\n    }\r\n\r\n    function getMessage() public view returns (string memory){\r\n        return message;\r\n    }\r\n\r\n    function setMessage(string memory _message) public payable {\r\n        require(msg.value > 1 ether);\r\n        message = _message;\r\n    }\r\n\r\n    function setMessageByOwner(string memory _message) public {\r\n        require(msg.sender == owner);\r\n        message = _message;\r\n    }\r\n}\r\n",
  "sourcePath": "C:\\Users\\stein\\Downloads\\TruffleEssentials\\contracts\\MyContract.sol",
  "compiler": {
    "name": "solc",
    "version": "0.8.4+commit.c7e474f2.Emscripten.clang"
  },
  "schemaVersion": "3.4.2",
  "updatedAt": "2021-08-07T19:38:43.719Z",
  "networkType": "ethereum",
  "devdoc": {
    "kind": "dev",
    "methods": {},
    "version": 1
  },
  "userdoc": {
    "kind": "user",
    "methods": {},
    "version": 1
  }
}